:060000000A128A110C280F
:10000800FE00030EFA000A08FB000A128A11092AE8
:100018000A128A110F288313CD30FD000730FE0025
:100028004230FF00C23084000A128A11F2260A12F6
:100038008A116B30FD000730FE007330FF0063301B
:1000480084000A128A11F2260A128A11A03084004A
:10005800C2300A128A117B270A128A11EB01EC01BD
:10006800ED01EE01EF01FC01FD0183010A128A1185
:100078002A29831203132F0884008313000884009D
:100088000A128A1158270A128A11253A031D4D2887
:100098004E2810292F088400013080078316031387
:1000A800C001C101003083120313ED00FF30EB00E3
:1000B800FF30EC002F0884000008B40034088400E6
:1000C8000A128A1158270A128A11643A03196D28EC
:1000D8006E287A28340884000A128A1158270A12CE
:1000E8008A11693A031D79287A280829300884007A
:1000F8000008FF00023080077F0884000008B50070
:10010800840A0008B6002F0884003408013E8000E5
:100118002030B900B61B912893280130942800306C
:10012800B3000130B9023908A03E84000A30A000AB
:100138000030A1003608A3003508A2000A128A116F
:10014800C1240A128A11831203132108A700200868
:10015800A6000A128A1101270A128A1183120313B0
:100168002608303E831380000A30A0000030A1002A
:100178003608A3003508A2000A128A115C240A1264
:100188008A11831203132108B6002008B500350828
:1001980036040319D028D128D6283908031DD528B4
:1001A800D628952839080319DA28DB2801293308C5
:1001B8000319DF28E02801290130B9023908A03ED7
:1001C80084002D308313800001293908A03E840063
:1001D80083130008B100B2013108A0003208A10061
:1001E8002D08A2002E08A3000A128A11BB220A12A7
:1001F8008A11013083120313B90720303906031D11
:1002080006290729E9282929831203132F088400BE
:1002180001308313800729292F08840000088400EF
:100228000A128A1158270A128A11B100B20131083C
:10023800A0003208A1002D08A2002E08A3000A126F
:100248008A11BB220A128A11082908008312031393
:100258008501073083160313850083120313860173
:1002680083160313860183120313870180308316D4
:100278000313870007309F0007309C008312031385
:1002880090110A128A1135270A128A110A128A1144
:1002980025270A128A117C087D0403195429552937
:1002A8006E29013083120313EF000A128A116127A5
:1002B8000A128A117D0883120313D1007C08D0002A
:1002C8000A128A115B230A128A110130831203135E
:1002D800EE00FF29831203136E0803197429752988
:1002E800832907120A128A1132260A128A118312E6
:1002F8000313EE010A128A1114270A128A110A122C
:100308008A111A250A128A11FF29051D8C298D299F
:10031800AA290030680203300319670203189529D7
:100328009629AA290130E7070318E80A0030E807E8
:10033800023083120313E2004530E100A930E000E7
:10034800E00BA429E10BA429E20BA42983120313CF
:10035800851CAF29B029E229003068020230031950
:100368006702031CB829B929E2290130E7020030E5
:10037800031CE803E802023083120313E20045304D
:10038800E100A930E000E00BC729E10BC729E20B27
:10039800C729E2290130E5000030E6000A128A1177
:1003A800CF260A128A11F4293C30E5000030E60015
:1003B800D2291030E5000E30E600D229831203134B
:1003C8006808003A0319E929F4296708013A03196A
:1003D800CE29033A0319D829013A0319DD29F4294A
:1003E800831203136808A2006708A1000A128A1181
:1003F80069250A128A11831203130518042A052A8B
:1004080089294F290A128A110C28831203138C1E7A
:100418000E2A0F2A1E2A9818122A132A172A181D7C
:10042800162A172A1C2A18120000831203131816FA
:100438001A088C120B1D212A222AB42A6608F100F8
:100448006508F000E830F2000330F3000A128A1160
:1004580064260A128A117008F6007108F700F8017C
:10046800F9018316031349087906031D452A48082C
:100478007806031D452A47087706031D452A4608BE
:100488007606031D482A492A6B2A83120313051985
:100498004E2A4F2A5F2A8518522A532A5F2A7C0837
:1004A8007D040319582A592A5F2A0130FC020030BA
:1004B800031CFD03FD020630810000308316031380
:1004C800C9000030C8000030C7000130C600013044
:1004D800C607003003180130C70700300318013081
:1004E800C807003003180130C907C8308312031346
:1004F80069066A04031D812A822AAD2A0518852AFD
:10050800862AA92A051D892A8A2A992A0F307C0653
:10051800273003197D060319922A932A992A013054
:10052800FC070318FD0A0030FD07851C9C2A9D2A3C
:10053800A92A7C087D040319A22AA32AA92A013022
:10054800FC020030031CFD03FD020130E90000300D
:10055800EA000130E9070318EA0A0030EA070B113C
:100568007B088A007A0E8300FE0E7E0E0900831235
:100578000313220823040319C22AC32AC92A2208FA
:100588002304031DC82AC92AD02A20080A128A115E
:1005980083270A128A115A2B2208093EA40023082D
:1005A8000318013E003EA500240884008317251C7B
:1005B80083130008A600840A0008A7002608270459
:1005C8000319E72AE82A1A2B2208093EA40023085F
:1005D8000318013E003EA500240884008317251C4B
:1005E80083130008A600840A0008A7002208023E18
:1005F800A80023080318013E003EA900280884002B
:100608008317291C83130008AA00840A0008AB007A
:100618002B08803AAC002708803A2C02031D162BC1
:1006280026082A020318192B1A2B5A2B8312031394
:10063800220884008317231C83130008A400840A5B
:100648000008A5002208023EA60023080318013E60
:10065800003EA700260884008317271C8313000880
:100668002407A9002508A8000318A80A801F3D2B05
:10067800A803831203132808AA00290884008317F3
:100688002A1C8313200880002208023EA4002308A5
:100698000318013E003EA500240884008317251C8A
:1006A800831301308007840A0318800A0800831224
:1006B80003135108DF005008DE000130D800003075
:1006C800D900DA01DB015E085F04031D6C2B6D2B7A
:1006D8009E2B0130DA000030DB00A42B0A30A0008A
:1006E8000030A1005F08A3005E08A2000A128A1168
:1006F800F8250A128A110A3083120313A000003069
:10070800A1005F08A3005E08A2000A128A11B4259E
:100718000A128A11831203132108DF002008DE0061
:100728005908DB005808DA000130D8070318D90A3D
:100738000030D9075E085F04031DA32BA42B722B7E
:100748005430BF000130C0005108C2005008C10039
:100758000A128A1189260A128A1183120313DC01EC
:10076800DD01E12B0F3087045C08543E84008313BD
:1007780000080A128A11EC230A128A110130831226
:100788000313D2005C0ACA2B0310D20DFF3E031DCF
:10079800C82B52088706033083120313D3009730FF
:1007A800D200D20BD52BD30BD52B013083120313D8
:1007B800DC070318DD0A0030DD075B085D02031D56
:1007C800E72B5A085C02031CEA2BEB2BB62B08001C
:1007D80083120313A000262C3F3086005B2C0630C2
:1007E80086005B2C5B3086005B2C4F3086005B2CD0
:1007F800663086005B2C6D3086005B2C7D30860071
:100808005B2C073086005B2C7F3086005B2C6F30BA
:1008180086005B2C773086005B2C7C3086005B2C56
:10082800393086005B2C5E3086005B2C7930860080
:100838005B2C713086005B2C543086005B2CFF30BB
:1008480086005B2C2008303A0319F02B013A031973
:10085800F32B033A0319F62B013A0319F92B073A3C
:100868000319FC2B013A0319FF2B033A0319022C35
:10087800013A0319052C0F3A0319082C013A0319F8
:100888000B2C583A03190E2C033A0319112C013A70
:100898000319142C073A0319172C013A03191A2CB7
:1008A800033A03191D2C083A0319202C232C08009D
:1008B80083120313A501A11F622C632C6A2CA009C3
:1008C800A109A00A0319A10A0130A500A31F6D2CD4
:1008D8006E2C752CA209A309A20A0319A30A0130D8
:1008E800A506A601A7012008210403197C2C7D2C4C
:1008F800B22C0130A400892C01300310A00DA10DE9
:10090800FF3E031D812C0130A407A11F8C2C8D2CC8
:10091800802C01300310A60DA70DFF3E031D8E2C61
:1009280021082302031D9A2C20082202031C9D2C57
:100938009E2CA52C2008A2022108031CA303A302B5
:10094800261401300310A10CA00CFF3E031DA62C99
:100958000130A402031DB12CB22C8D2C25080319DB
:10096800B62CB72CBC2CA609A709A60A0319A70AF6
:100978002708A1002608A000080083120313A50178
:10098800A31FC72CC82CCF2CA209A309A20A03199C
:10099800A30A0130A500A11FD22CD32CD82CA00962
:1009A800A109A00A0319A10A200821040319DD2CB2
:1009B800DE2C0B2D0130A400EA2C01300310A00D11
:1009C800A10DFF3E031DE22C0130A407A11FED2C51
:1009D800EE2CE12C21082302031DF42C200822020E
:1009E800031CF72CF82CFE2C2008A2022108031C5B
:1009F800A303A30201300310A10CA00CFF3E031DAA
:100A0800FF2C0130A402031D0A2D0B2DEE2C250806
:100A180003190F2D102D152DA209A309A20A0319D8
:100A2800A30A2308A1002208A000080083160313C4
:100A38004A0883120313A300831603134B08831277
:100A48000313A400831603134C0883120313A50091
:100A5800A601A7010F308312031387042608233E3B
:100A68008400831300080A128A11EC230A128A11DF
:100A7800013083120313A100260A442D0310A10D8F
:100A8800FF3E031D422D21088706033083120313FE
:100A9800A2009730A100A10B4F2DA20B4F2D0130C2
:100AA80083120313A6070318A70A0030A70727080D
:100AB800803AFF0080307F02031D642D0330260238
:100AC800031C672D682D2E2D080083160313450877
:100AD80083120313A8008316031344088312031315
:100AE800A70083160313430883120313A600831673
:100AF8000313420883120313A5000F3087046330E1
:100B08000A128A11EC230A128A1101308312031384
:100B18008706033083120313A4009730A300A30BA6
:100B2800932DA40B932D0F308312031387042108F0
:100B3800253E8400831300080A128A11EC230A1246
:100B48008A110230831203138706033083120313BA
:100B5800A4009730A300A30BAF2DA40BAF2D080062
:100B680083120313A401A501200821040319BD2D34
:100B7800BE2DF32D0130A600CA2D01300310A00DA3
:100B8800A10DFF3E031DC22D0130A607A11FCD2DCB
:100B9800CE2DC12D01300310A40DA50DFF3E031D60
:100BA800CF2D21082302031DDB2D20082202031C60
:100BB800DE2DDF2DE62D2008A2022108031CA30349
:100BC800A302241401300310A10CA00CFF3E031D46
:100BD800E72D0130A602031DF22DF32DCE2D250899
:100BE800A1002408A0000800831203132008210490
:100BF8000319FF2D002E2D2E0130A4000C2E0130DC
:100C08000310A00DA10DFF3E031D042E0130A40703
:100C1800A11F0F2E102E032E21082302031D162EAE
:100C280020082202031C192E1A2E202E2008A202A8
:100C38002108031CA303A30201300310A10CA00C7C
:100C4800FF3E031D212E0130A402031D2C2E2D2E44
:100C5800102E2308A1002208A00008008312031305
:100C68006F08031D382E392E3A2E632E85158230D3
:100C780083120313A100DD30A000A00B412EA10BAD
:100C8800412E831203138511823083120313A100AE
:100C9800DD30A000A00B4E2EA10B4E2E83120313A5
:100CA8008515823083120313A100DD30A000A00B4C
:100CB8005B2EA10B5B2E831203138511EF01080035
:100CC800F401F501701C692E6A2E702E7208F40763
:100CD8000318F50A7308F50701300310F20DF30D38
:100CE800FF3E031D712E01300310F10CF00CFF3E86
:100CF800031D782E70087104031D832E842E662E22
:100D08007508F1007408F0000800413083120313DD
:100D1800C4003F08C5000030C600C701C801CE01A5
:100D2800CF014530BA000030BB004008BC00443059
:100D3800BD000A128A11AC260A128A118312031303
:100D480047083F07C3004308840083138001080055
:100D5800831203133C08BE00BE2E3A08AD003B08C0
:100D6800AE003E30AF003D08B0000A128A113D20A7
:100D78000A128A11831203133E0884000A128A1188
:100D880058270A128A11003A031DCB2ECC2EB12EF9
:100D9800BA01BB0108008312031366086406031D29
:100DA800D72E65086306031DDA2EDB2EDC2EED2E0A
:100DB80007120A128A1132260A128A110A128A1195
:100DC80014270A128A11831203136608E4006508BF
:100DD800E30008007E088A007F0882000A128A1150
:100DE800EE260A128A118000840A04087D06031977
:100DF8000034FF0A0319FE0AF22E83120313A71BFD
:100E0800062F072F082F132F2609A8002709A90046
:100E1800A80A0319A90A2808A6002908A700080093
:100E2800003083160313C9000030C8000030C70023
:100E38000130C600FC01FD01063083120313810056
:100E4800080022308316031398009230831203138C
:100E580098000C308316031399000713871798140A
:100E680008008B170B170A128A116A270A128A11AF
:100E78000A128A114D270A128A11080030343134B7
:100E880032343334013400340034003465346E3481
:100E980064348B160B11013083160313810006305E
:100EA800831203138100080007308A000408840AAB
:100EB8008207003425346434003483120313071E78
:100EC800662F672F682F692F0716080083160313EC
:100ED8000C128C16831203130C168C16080001349E
:100EE8000034013400340134003401340034640027
:100EF8008001840A04060319003404067C2F0800C4
:02400E003A3F37
:00000001FF
