:060000000A128A110C280F
:10000800FE00030EFA000A08FB000A128A11F729FB
:100018000A128A110F288313C430FD000630FE002F
:10002800DD30FF00C03084000A128A1166260A12E9
:100038008A116830FD000630FE00B030FF005E30E7
:1000480084000A128A1166260A128A110A128A1173
:10005800E1260A128A11FC000A128A11E2260A1203
:100068008A11FD00A0308400C0300A128A11D526FA
:100078000A128A116830840070300A128A11D52653
:100088000A128A1183010A128A1139298312031369
:10009800AF002A0884008313000884000A128A111A
:1000A800BA260A128A11253A031D5B285C282129E1
:1000B8000130FF002A0884007F088007E801E90171
:1000C8000310003003180130EE00FF30EA00FF3063
:1000D800EB002A0884000008B000300884000A12E7
:1000E8008A11BA260A128A11643A03197C287D28D3
:1000F8008928300884000A128A11BA260A128A113D
:10010800693A031D8828892817292B0884000008C4
:10011800FF00023080077F0884000008B100840ACD
:100128000008B2002A0884003008013E8000203010
:10013800B500B21BA028A2280130A3280030AE00C9
:100148000130B5023508A03E84000A30A000003016
:10015800A1003208A3003108A2000A128A112C2437
:100168000A128A11831203132108A7002008A60087
:100178000A128A1175260A128A1183120313260895
:10018800303E831380000A30A0000030A1003208FE
:10019800A3003108A2000A128A11C3230A128A1185
:1001A800831203132108B2002008B1003108320479
:1001B8000319DF28E028E5283508031DE428E52889
:1001C800A42835080319E928EA2810292E08031954
:1001D800EE28EF2810290130B5023508A03E84002A
:1001E8002D308313800010293508A03E8400831326
:1001F8000008AC00AD012C08A0002D08A1002F08B4
:10020800A2000A128A1187240A128A110130FF00FB
:100218007F0883120313B50720303506031D1529FF
:100228001629F82838290130FF00831203132A08F9
:1002380084007F088313800738292A08840000086F
:1002480084000A128A11BA260A128A11AC00AD017A
:100258002C08A0002D08A1002F08A2000A128A115C
:1002680087240A128A1117290800831203138501AB
:100278000730831603138500831203138601831640
:100288000313860183120313870180308316031337
:10029800870007309F0007309C00831203139011DA
:1002A8000A128A1198260A128A110A128A118826B5
:1002B8000A128A11831203136C086D040319652945
:1002C8006629E429EF01EF0A0A128A11C3260A12E5
:1002D8008A11E429051D712972298F2900306502C8
:1002E80003300319640203187A297B298F29013006
:1002F800E4070318E50A0030E50702308312031308
:10030800DD004530DC00A930DB00DB0B8929DC0B84
:100318008929DD0B892983120313851C94299529C2
:10032800C72900306502023003196402031C9D29A5
:100338009E29C7290130E4020030031CE503E502C9
:10034800023083120313DD004530DC00A930DB00E6
:10035800DB0BAC29DC0BAC29DD0BAC29C729013040
:10036800FC000030FD000A128A1146260A128A1182
:10037800D9293C30FC000030FD00B7291030FC00C2
:100388000E30FD00B729831203136508003A0319DC
:10039800CE29D9296408013A0319B329033A031964
:1003A800BD29013A0319C229D92983120313650803
:1003B800A4006408A3000A128A11E1240A128A110F
:1003C800831203130518E929EA296E296D08CC0060
:1003D8006C08CB000A128A11B2220A128A115E290D
:1003E8000A128A110C28831203138C1EFC29FD297A
:1003F8000C2A9818002A012A052A181D042A052AF9
:100408000A2A181200008312031318161A088C12ED
:100418000B1D0F2A102AAB2A7D08F1007C08F0007A
:10042800E830F2000330F3000A128A11E1250A12BB
:100438008A117008F6007108F700F801F9018312B3
:10044800031361087906031D332A60087806031D23
:10045800332A5F087706031D332A5E087606031DD4
:10046800362A372A642A05193A2A3B2A5A2A85182D
:100478003E2A3F2A5A2A6C086D04031D442A452A3D
:100488004E2A0A128A11B2250A128A1183120313FC
:1004980007125A2A6C086D040319532A542A5A2A37
:1004A8000130EC020030031CED03ED020630810040
:1004B8000030E1000030E0000030DF000130DE00F5
:1004C8000130DE07003003180130DF070030031861
:1004D8000130E007003003180130E107C830660634
:1004E8006704031D782A792AA42A05187C2A7D2AFC
:1004F800A02A051D802A812A902A0F306C062730F1
:1005080003196D060319892A8A2A902A0130EC07F3
:100518000318ED0A0030ED07851C932A942AA02AB7
:100528006C086D040319992A9A2AA02A0130EC0252
:100538000030031CED03ED020130E6000030E70057
:100548000130E6070318E70A0030E7070B117B08BC
:100558008A007A0E8300FE0E7E0E090083120313B2
:100568004C08D8004B08D7000130D3000030D40025
:10057800D501D60157085804031DC32AC42AF52AF1
:100588000130D5000030D600FB2A0A30A000003028
:10059800A1005808A3005708A2000A128A1176255C
:1005A8000A128A110A3083120313A0000030A10036
:1005B8005808A3005708A2000A128A1130250A1207
:1005C8008A11831203132108D8002008D700540881
:1005D800D6005308D5000130D3070318D40A0030D9
:1005E800D40757085804031DFA2AFB2AC92A0130E0
:1005F800BA004C08BC004B08BB004F300A128A11E5
:1006080027260A128A1183120313D901DA01462B0D
:100618000F30FF007F0887040130CD00590A162BE0
:100628000310CD0DFF3E031D142B4D08FF007F085E
:10063800870659084F3E8400831300080A128A115E
:1006480051230A128A110D3083120313CE00FB3096
:10065800CD00CD0B2D2BCE0B2D2B01308312031388
:10066800CD00590A392B0310CD0DFF3E031D372B42
:100678004D08FF007F0887060130D9070318DA0AFA
:100688000030DA0756085A02031D4C2B5508590248
:10069800031C4F2B502B0C2B080083120313A200B2
:1006A800882B3F308600C22B06308600C22B5B3079
:1006B8008600C22B4F308600C22B66308600C22BC4
:1006C8006D308600C22B7D308600C22B0730860035
:1006D800C22B7F308600C22B6F308600C22B77304A
:1006E8008600C22B7C308600C22B39308600C22B94
:1006F8005E308600C22B79308600C22B71308600AE
:10070800C22BFF308600C22B2208A000A1012108BD
:10071800003A0319902B852B2008303A0319552BE2
:10072800013A0319582B033A03195B2B013A0319B1
:100738005E2B073A0319612B013A0319642B033A1C
:100748000319672B013A03196A2B0F3A03196D2B0A
:10075800013A0319702B583A0319732B033A0319FA
:10076800762B013A0319792B073A03197C2B013AA6
:1007780003197F2B033A0319822B852B0800831258
:100788000313A501A11FC92BCA2BD12BA009A109AD
:10079800A00A0319A10AA501A50AA31FD42BD52BCA
:1007A800DE2BA209A309A20A0319A30A0130FF003C
:1007B8007F08A506A601A701200821040319E52B37
:1007C800E62B1D2CA401A40AF42B01300310A00D64
:1007D800A10DFF3E031DEA2B0130FF007F08A4078F
:1007E800A11FF72BF82BE92B01300310A60DA70D3D
:1007F800FF3E031DF92B21082302031D052C2008A9
:100808002202031C082C092C102C2008A202210803
:10081800031CA303A302261401300310A10CA00C8F
:10082800FF3E031D112C0130A402031D1C2C1D2C9E
:10083800F82B25080319212C222C272CA609A709F7
:10084800A60A0319A70A2708A1002608A00008007D
:1008580083120313A501A31F322C332C3A2CA209AF
:10086800A309A20A0319A30AA501A50AA11F3D2CE1
:100878003E2C432CA009A109A00A0319A10A2008AB
:1008880021040319482C492C782CA401A40A572CBC
:1008980001300310A00DA10DFF3E031D4D2C0130AA
:1008A800FF007F08A407A11F5A2C5B2C4C2C2108A1
:1008B8002302031D612C20082202031C642C652CD2
:1008C8006B2C2008A2022108031CA303A3020130F9
:1008D8000310A10CA00CFF3E031D6C2C0130A402D8
:1008E800031D772C782C5B2C250803197C2C7D2C78
:1008F800822CA209A309A20A0319A30A2308A100AA
:100908002208A000080083120313220803198D2C63
:100918008E2C932C2208031D922C932C9A2C2008A1
:100928000A128A11E3260A128A11E02C2208093ECB
:10093800840083130008A300840A0008A400230885
:1009480024040319A82CA92CC72C2208093E8400CA
:100958000008A300840A0008A4002208023E8400BC
:100968000008A500840A0008A6002608803AA70007
:100978002408803A2702031DC32C230825020318E4
:10098800C62CC72CE02C831203132208023E8400D5
:1009980083130008A3002208840000082307A4008A
:1009A80024088400200880002208023E84000130C8
:1009B8008007840A0318800A080083160313430873
:1009C80083120313AA008316031342088312031326
:1009D800A90083160313410883120313A800831682
:1009E8000313400883120313A7000F30FF007F088A
:1009F80087040130FF007F08870663300A128A11D6
:100A080051230A128A110D3083120313A600FB30FA
:100A1800A500A50B0D2DA60B0D2D0F30FF007F088F
:100A28008312031387040230FF007F088706230818
:100A3800273E8400831300080A128A1151230A12E0
:100A48008A110D3083120313A600FB30A500A50BF5
:100A58002B2DA60B2B2D080083120313A401A5012F
:100A6800200821040319392D3A2D712DA601A60A53
:100A7800482D01300310A00DA10DFF3E031D3E2D92
:100A88000130FF007F08A607A11F4B2D4C2D3D2DDF
:100A980001300310A40DA50DFF3E031D4D2D2108A7
:100AA8002302031D592D20082202031C5C2D5D2DF5
:100AB800642D2008A2022108031CA303A302241406
:100AC80001300310A10CA00CFF3E031D652D013061
:100AD800A602031D702D712D4C2D2508A100240898
:100AE800A0000800831203132008210403197D2D98
:100AF8007E2DAD2DA401A40A8C2D01300310A00D6C
:100B0800A10DFF3E031D822D0130FF007F08A407C1
:100B1800A11F8F2D902D812D21082302031D962DB5
:100B280020082202031C992D9A2DA02D2008A2022C
:100B38002108031CA303A30201300310A10CA00C7D
:100B4800FF3E031DA12D0130A402031DAC2DAD2DC8
:100B5800902D2308A1002208A00008008312031387
:100B68006F08031DB82DB92DBA2DE02D85158230DB
:100B7800F100DD30F000F00BBF2DF10BBF2DC42DBF
:100B88008312031385118230F100DD30F000F00B81
:100B9800CB2DF10BCB2DD02D83120313851582306D
:100BA800F100DD30F000F00BD72DF10BD72DDC2D47
:100BB800831203138511EF010800F401F501701C7D
:100BC800E62DE72DED2D7208F4070318F50A7308D2
:100BD800F50701300310F20DF30DFF3E031DEE2D56
:100BE80001300310F10CF00CFF3E031DF52D7008C9
:100BF8007104031D002E012EE32D7508F100740801
:100C0800F000080083120313B8003608B900162E46
:100C18003930AA003708AB0038080A128A114A206E
:100C28000A128A1183120313390884000A128A11DE
:100C3800BA260A128A11003A031D232E242E0C2EDE
:100C4800B601B701080083120313BF003B30BE0092
:100C58003F08C000C201C301C901CA013A08B60071
:100C68003E30B70040300A128A1106260A128A114D
:100C78008312031342083F07BD003D088400831315
:100C8800800108007D08831203136306031D4E2E9E
:100C98007C086206031D512E522E532E612E003001
:100CA800E1000030E0000030DF000130DE00EC0140
:100CB800ED017D08E3007C08E20008007E088A0058
:100CC8007F0882000A128A1162260A128A1180009D
:100CD800840A04087D0603190034FF0A0319FE0A72
:100CE800662E83120313A71B7A2E7B2E7C2E872E4B
:100CF8002609A8002709A900A80A0319A90A28088B
:100D0800A6002908A70008002230831603139800BC
:100D180092308312031398000C3083160313990042
:100D280007138717981408008B170B170A128A11D4
:100D3800CC260A128A110A128A11A5260A128A11C9
:100D480008008B160B11013083160313810006303F
:100D58008312031381000800013400340034003486
:100D680001340034013400340134003406308A0080
:100D78000408840A8207003425346434003483125A
:100D88000313071EC82EC92ECA2ECB2E071608001D
:100D9800831603130C128C16831203130C168C166D
:100DA800080064008001840A04060319003404065C
:100DB800D62E303431343234333401340034080020
:02400E003A3F37
:00000001FF
