:060000000A128A110C280F
:10000800FE00030EFA000A08FB000A128A11162ADB
:100018000A128A110F288313C830FD000730FE002A
:100028004930FF00C03084000A128A11CA260A1219
:100038008A117030FD000730FE002530FF00673060
:1000480084000A128A11CA260A128A110A128A110F
:1000580059270A128A11FC000A128A115A270A1211
:100068008A11FD00A0308400C0300A128A1151277D
:100078000A128A115E30840067300A128A115127E9
:100088000A128A1183010A128A1139298312031369
:10009800AF002A0884008313000884000A128A111A
:1000A8002E270A128A11253A031D5B285C2821296C
:1000B8000130FF002A0884007F088007DE01DF0185
:1000C8000310003003180130E400FF30E000FF3077
:1000D800E1002A0884000008B000300884000A12F1
:1000E8008A112E270A128A11643A03197C287D285E
:1000F8008928300884000A128A112E270A128A11C8
:10010800693A031D8828892817292B0884000008C4
:10011800FF00023080077F0884000008B100840ACD
:100128000008B2002A0884003008013E8000203010
:10013800B500B21BA028A2280130A3280030AE00C9
:100148000130B5023508A03E84000A30A000003016
:10015800A1003208A3003108A2000A128A113D2426
:100168000A128A11831203132108A7002008A60087
:100178000A128A11D9260A128A1183120313260831
:10018800303E831380000A30A0000030A1003208FE
:10019800A3003108A2000A128A11D4230A128A1174
:1001A800831203132108B2002008B1003108320479
:1001B8000319DF28E028E5283508031DE428E52889
:1001C800A42835080319E928EA2810292E08031954
:1001D800EE28EF2810290130B5023508A03E84002A
:1001E8002D308313800010293508A03E8400831326
:1001F8000008AC00AD012C08A0002D08A1002F08B4
:10020800A2000A128A1198240A128A110130FF00EA
:100218007F0883120313B50720303506031D1529FF
:100228001629F82838290130FF00831203132A08F9
:1002380084007F088313800738292A08840000086F
:1002480084000A128A112E270A128A11AC00AD0105
:100258002C08A0002D08A1002F08A2000A128A115C
:1002680098240A128A11172908008312031385019A
:100278000730831603138500831203138601831640
:100288000313860183120313870180308316031337
:10029800870007309F0007309C00831203139011DA
:1002A8000A128A110D270A128A110A128A11FD26CA
:1002B8000A128A1183120313620863040319652959
:1002C80066297D29E601E60A0A128A1137270A12E9
:1002D8008A11831203136308CC006208CB000A1248
:1002E8008A11C8220A128A1183120313E501E50A4A
:1002F8000C2A6508031981298229902907120A12F4
:100308008A1110260A128A1183120313E5010A12B0
:100318008A11EC260A128A110A128A1145250A1234
:100328008A110C2A051D99299A29B72900306D02CE
:10033800033003196C020318A229A329B729013035
:10034800EC070318ED0A0030ED070230831203139F
:10035800DD004530DC00A930DB00DB0BB129DC0B0C
:10036800B129DD0BB12983120313851CBC29BD29D2
:10037800EF2900306D02023003196C02031CC529F5
:10038800C629EF290130EC020030031CED03ED0211
:10039800023083120313DD004530DC00A930DB0096
:1003A800DB0BD429DC0BD429DD0BD429EF29013050
:1003B800FC000030FD000A128A11A7260A128A11D1
:1003C800012A3C30FC000030FD00DF291030FC0021
:1003D8000E30FD00DF29831203136D08003A03195C
:1003E800F629012A6C08013A0319DB29033A031993
:1003F800E529013A0319EA29012A831203136D0832
:10040800A4006C08A3000A128A11F2240A128A11A5
:10041800831203130518112A122A96295E290A1233
:100428008A110C28831203138C1E1B2A1C2A2B2AC0
:1004380098181F2A202A242A181D232A242A292A00
:10044800181200008312031318161A088C120B1DB9
:100458002E2A2F2AC12A7D08F1007C08F000E830F6
:10046800F2000330F3000A128A1142260A128A1196
:100478007008F6007108F700F801F90183160313F4
:1004880047087906031D522A46087806031D522A92
:1004980045087706031D522A44087606031D552A87
:1004A800562A782A8312031305195B2A5C2A6C2AB8
:1004B80085185F2A602A6C2A620863040319652A72
:1004C800662A6C2A0130E2020030031CE303E302CF
:1004D80006308100003083160313C7000030C600C1
:1004E8000030C5000130C4000130C40700300318D3
:1004F8000130C507003003180130C6070030031863
:100508000130C707C830831203136E066F04031D3A
:100518008E2A8F2ABA2A0518922A932AB62A051DE6
:10052800962A972AA62A0F306206273003196306EF
:1005380003199F2AA02AA62A0130E2070318E30A12
:100548000030E307851CA92AAA2AB62A6208630490
:100558000319AF2AB02AB62A0130E2020030031C80
:10056800E303E3020130EE000030EF000130EE0754
:100578000318EF0A0030EF070B117B088A007A0E88
:100588008300FE0E7E0E0900831203134C08DA0066
:100598004B08D9000130D3000030D400D501D60172
:1005A80059085A04031DD92ADA2A0B2B0130D50021
:1005B8000030D600112B0A30A0000030A1005A08E4
:1005C800A3005908A2000A128A11D4250A128A1116
:1005D8000A3083120313A0000030A1005A08A300B8
:1005E8005908A2000A128A118E250A128A1183124A
:1005F80003132108DA002008D9005408D60053084C
:10060800D5000130D3070318D40A0030D40759089D
:100618005A04031D102B112BDF2A0130BA004C0895
:10062800BC004B08BB004F300A128A1188260A12F8
:100638008A1183120313D701D801512B0F30FF0001
:100648007F08870457084F3E8400831300080A1266
:100658008A115C230A128A11013083120313CD0018
:10066800570A382B0310CD0DFF3E031D362B4D08BE
:10067800FF007F088706033083120313CE009730EC
:10068800CD00CD0B452BCE0B452B01308312031328
:10069800D7070318D80A0030D80756085802031D90
:1006A800572B55085702031C5A2B5B2B222B08008B
:1006B80083120313A200962B3F308600D32B0630FB
:1006C8008600D32B5B308600D32B4F308600D32B8C
:1006D80066308600D32B6D308600D32B7D308600A4
:1006E800D32B07308600D32B7F308600D32B6F3077
:1006F8008600D32B77308600D32B7C308600D32B13
:1007080039308600D32B5E308600D32B79308600B3
:10071800D32B71308600D32B54308600D32BFF3077
:100728008600D32B2208A000A1012108003A031952
:100738009E2B932B2008303A0319602B013A03199A
:10074800632B033A0319662B013A0319692B073AFD
:1007580003196C2B013A03196F2B033A0319722BF7
:10076800013A0319752B0F3A0319782B013A03192B
:100778007B2B583A03197E2B033A0319812B013A34
:100788000319842B073A0319872B013A03198A2B7B
:10079800033A03198D2B083A0319902B932B080061
:1007A80083120313A501A11FDA2BDB2BE22BA0096F
:1007B800A109A00A0319A10AA501A50AA31FE52BEF
:1007C800E62BEF2BA209A309A20A0319A30A0130F9
:1007D800FF007F08A506A601A70120082104031928
:1007E800F62BF72B2E2CA401A40A052C013003109C
:1007F800A00DA10DFF3E031DFB2B0130FF007F085C
:10080800A407A11F082C092CFA2B01300310A60DF0
:10081800A70DFF3E031D0A2C21082302031D162CD9
:1008280020082202031C192C1A2C212C2008A202B1
:100838002108031CA303A302261401300310A10CF2
:10084800A00CFF3E031D222C0130A402031D2D2CF9
:100858002E2C092C25080319322C332C382CA609E8
:10086800A709A60A0319A70A2708A1002608A000B5
:10087800080083120313A501A31F432C442C4B2CFF
:10088800A209A309A20A0319A30AA501A50AA11F7F
:100898004E2C4F2C542CA009A109A00A0319A10A17
:1008A800200821040319592C5A2C892CA401A40AC4
:1008B800682C01300310A00DA10DFF3E031D5E2C16
:1008C8000130FF007F08A407A11F6B2C6C2C5D2C46
:1008D80021082302031D722C20082202031C752CF8
:1008E800762C7C2C2008A2022108031CA303A30257
:1008F80001300310A10CA00CFF3E031D7D2C01301C
:10090800A402031D882C892C6C2C250803198D2C16
:100918008E2C932CA209A309A20A0319A30A23085F
:10092800A1002208A000080083120313220803195B
:100938009E2C9F2CA42C2208031DA32CA42CAB2C8A
:1009480020080A128A115B270A128A11F12C220840
:10095800093E840083130008A300840A0008A40049
:10096800230824040319B92CBA2CD82C2208093ED0
:1009780084000008A300840A0008A4002208023E9C
:1009880084000008A500840A0008A6002608803A0A
:10099800A7002408803A2702031DD42C2308250227
:1009A8000318D72CD82CF12C831203132208023EEB
:1009B800840083130008A30022088400000823078A
:1009C800A40024088400200880002208023E840035
:1009D80001308007840A0318800A0800831603136D
:1009E800430883120313AA008316031342088312D1
:1009F8000313A90083160313410883120313A800E5
:100A080083160313400883120313A7000F30FF0057
:100A18007F08870463300A128A115C230A128A113C
:100A28000130FF007F088312031387060330831207
:100A38000313A6009730A500A50B202DA60B202D8B
:100A48000F30FF007F088312031387042308273E13
:100A58008400831300080A128A115C230A128A117F
:100A68000230FF007F0883120313870603308312C6
:100A78000313A6009730A500A50B402DA60B402D0B
:100A88000800831203136708A5006808A600690810
:100A9800A700A801A9010F30FF007F0883120313E4
:100AA80087042808253E8400831300080A128A1147
:100AB8005C230A128A11013083120313A300280A47
:100AC800672D0310A30DFF3E031D652D2308FF00AE
:100AD8007F088706033083120313A4009730A3000E
:100AE800A30B742DA40B742D013083120313A807D4
:100AF8000318A90A0030A9072908803AFF008030A6
:100B08007F02031D892D03302802031C8C2D8D2D97
:100B18004F2D080083120313A401A5012008210406
:100B28000319972D982DCF2DA601A60AA62D0130C1
:100B38000310A00DA10DFF3E031D9C2D0130FF00E9
:100B48007F08A607A11FA92DAA2D9B2D01300310F0
:100B5800A40DA50DFF3E031DAB2D21082302031D87
:100B6800B72D20082202031CBA2DBB2DC22D200848
:100B7800A2022108031CA303A302241401300310BA
:100B8800A10CA00CFF3E031DC32D0130A602031DBE
:100B9800CE2DCF2DAA2D2508A1002408A0000800DD
:100BA80083120313200821040319DB2DDC2D0B2EDF
:100BB800A401A40AEA2D01300310A00DA10DFF3EE7
:100BC800031DE02D0130FF007F08A407A11FED2DB4
:100BD800EE2DDF2D21082302031DF42D200822020B
:100BE800031CF72DF82DFE2D2008A2022108031C56
:100BF800A303A30201300310A10CA00CFF3E031DA8
:100C0800FF2D0130A402031D0A2E0B2EEE2D230802
:100C1800A1002208A0000800831203136608031D20
:100C2800162E172E182E412E851582308312031387
:100C3800A100DD30A000A00B1F2EA10B1F2E8312D8
:100C480003138511823083120313A100DD30A00045
:100C5800A00B2C2EA10B2C2E83120313851582308A
:100C680083120313A100DD30A000A00B392EA10BC5
:100C7800392E831203138511E6010800F401F501EA
:100C8800701C472E482E4E2E7208F4070318F50ADA
:100C98007308F50701300310F20DF30DFF3E031D35
:100CA8004F2E01300310F10CF00CFF3E031D562EA1
:100CB80070087104031D612E622E442E7508F10020
:100CC8007408F000080083120313B8003608B9004E
:100CD800772E3930AA003708AB0038080A128A1173
:100CE8004A200A128A1183120313390884000A124F
:100CF8008A112E270A128A11003A031D842E852E86
:100D08006D2EB601B701080083120313BF003B30F4
:100D1800BE003F08C000C201C301C901CA013A08A8
:100D2800B6003E30B70040300A128A1167260A1210
:100D38008A118312031342083F07BD003D0884004F
:100D48008313800108007D08831203136B06031DBB
:100D5800AF2E7C086A06031DB22EB32EB42EC52E04
:100D680007120A128A1110260A128A110A128A1107
:100D7800EC260A128A117D0883120313EB007C0803
:100D8800EA0008007E088A007F0882000A128A1199
:100D9800C6260A128A118000840A04087D060319EF
:100DA8000034FF0A0319FE0ACA2E83120313A71B75
:100DB800DE2EDF2EE02EEB2E2609A8002709A9003B
:100DC800A80A0319A90A2808A6002908A7000800E4
:100DD800003083160313C7000030C6000030C5007A
:100DE8000130C40083120313E201E30106308100DD
:100DF80008002230831603139800923083120313DD
:100E080098000C308316031399000713871798145A
:100E180008008B170B170A128A1140270A128A1129
:100E28000A128A111A270A128A1108008B160B1146
:100E380001308316031381000630831203138100E7
:100E4800080065346E3464340134003401340034ED
:100E58000134003407308A000408840A8207003409
:100E680025346434003483120313071E3C2F3D2FAE
:100E78003E2F3F2F07160800831603130C128C16FB
:100E8800831203130C168C160800303431343234B4
:100E98003334013400340034003464008001840A9F
:100EA8000406031900340406522F013400340800E4
:02400E003A3F37
:00000001FF
